{
  "_format": "hh-sol-artifact-1",
  "contractName": "Guestbook",
  "sourceName": "contracts/GuestBook.sol",
  "abi": [
    {
      "anonymous": false,
      "inputs": [
        {
          "indexed": true,
          "internalType": "address",
          "name": "sender",
          "type": "address"
        },
        {
          "indexed": false,
          "internalType": "string",
          "name": "message",
          "type": "string"
        },
        {
          "indexed": false,
          "internalType": "uint256",
          "name": "timestamp",
          "type": "uint256"
        }
      ],
      "name": "NewMessage",
      "type": "event"
    },
    {
      "inputs": [],
      "name": "getMessages",
      "outputs": [
        {
          "components": [
            {
              "internalType": "address",
              "name": "sender",
              "type": "address"
            },
            {
              "internalType": "string",
              "name": "message",
              "type": "string"
            },
            {
              "internalType": "uint256",
              "name": "timestamp",
              "type": "uint256"
            }
          ],
          "internalType": "struct Guestbook.Message[]",
          "name": "",
          "type": "tuple[]"
        }
      ],
      "stateMutability": "view",
      "type": "function"
    },
    {
      "inputs": [
        {
          "internalType": "string",
          "name": "_message",
          "type": "string"
        }
      ],
      "name": "leaveMessage",
      "outputs": [],
      "stateMutability": "nonpayable",
      "type": "function"
    },
    {
      "inputs": [
        {
          "internalType": "uint256",
          "name": "",
          "type": "uint256"
        }
      ],
      "name": "messages",
      "outputs": [
        {
          "internalType": "address",
          "name": "sender",
          "type": "address"
        },
        {
          "internalType": "string",
          "name": "message",
          "type": "string"
        },
        {
          "internalType": "uint256",
          "name": "timestamp",
          "type": "uint256"
        }
      ],
      "stateMutability": "view",
      "type": "function"
    }
  ],
  "bytecode": "0x6080604052348015600f57600080fd5b50610bf08061001f6000396000f3fe608060405234801561001057600080fd5b50600436106100415760003560e01c80630d80fefd146100465780634e7f1264146100785780635ff6cbf314610094575b600080fd5b610060600480360381019061005b9190610447565b6100b2565b60405161006f93929190610554565b60405180910390f35b610092600480360381019061008d91906106c7565b610194565b005b61009c6102ac565b6040516100a9919061088a565b60405180910390f35b600081815481106100c257600080fd5b90600052602060002090600302016000915090508060000160009054906101000a900473ffffffffffffffffffffffffffffffffffffffff169080600101805461010b906108db565b80601f0160208091040260200160405190810160405280929190818152602001828054610137906108db565b80156101845780601f1061015957610100808354040283529160200191610184565b820191906000526020600020905b81548152906001019060200180831161016757829003601f168201915b5050505050908060020154905083565b600060405180606001604052803373ffffffffffffffffffffffffffffffffffffffff16815260200183815260200142815250908060018154018082558091505060019003906000526020600020906003020160009091909190915060008201518160000160006101000a81548173ffffffffffffffffffffffffffffffffffffffff021916908373ffffffffffffffffffffffffffffffffffffffff160217905550602082015181600101908161024c9190610ab8565b506040820151816002015550503373ffffffffffffffffffffffffffffffffffffffff167f4bba44446aea2a9f27db36c95346239fd392bf3a497349684a3890d0d764077d82426040516102a1929190610b8a565b60405180910390a250565b60606000805480602002602001604051908101604052809291908181526020016000905b828210156103f457838290600052602060002090600302016040518060600160405290816000820160009054906101000a900473ffffffffffffffffffffffffffffffffffffffff1673ffffffffffffffffffffffffffffffffffffffff1673ffffffffffffffffffffffffffffffffffffffff168152602001600182018054610359906108db565b80601f0160208091040260200160405190810160405280929190818152602001828054610385906108db565b80156103d25780601f106103a7576101008083540402835291602001916103d2565b820191906000526020600020905b8154815290600101906020018083116103b557829003601f168201915b50505050508152602001600282015481525050815260200190600101906102d0565b50505050905090565b6000604051905090565b600080fd5b600080fd5b6000819050919050565b61042481610411565b811461042f57600080fd5b50565b6000813590506104418161041b565b92915050565b60006020828403121561045d5761045c610407565b5b600061046b84828501610432565b91505092915050565b600073ffffffffffffffffffffffffffffffffffffffff82169050919050565b600061049f82610474565b9050919050565b6104af81610494565b82525050565b600081519050919050565b600082825260208201905092915050565b60005b838110156104ef5780820151818401526020810190506104d4565b60008484015250505050565b6000601f19601f8301169050919050565b6000610517826104b5565b61052181856104c0565b93506105318185602086016104d1565b61053a816104fb565b840191505092915050565b61054e81610411565b82525050565b600060608201905061056960008301866104a6565b818103602083015261057b818561050c565b905061058a6040830184610545565b949350505050565b600080fd5b600080fd5b7f4e487b7100000000000000000000000000000000000000000000000000000000600052604160045260246000fd5b6105d4826104fb565b810181811067ffffffffffffffff821117156105f3576105f261059c565b5b80604052505050565b60006106066103fd565b905061061282826105cb565b919050565b600067ffffffffffffffff8211156106325761063161059c565b5b61063b826104fb565b9050602081019050919050565b82818337600083830152505050565b600061066a61066584610617565b6105fc565b90508281526020810184848401111561068657610685610597565b5b610691848285610648565b509392505050565b600082601f8301126106ae576106ad610592565b5b81356106be848260208601610657565b91505092915050565b6000602082840312156106dd576106dc610407565b5b600082013567ffffffffffffffff8111156106fb576106fa61040c565b5b61070784828501610699565b91505092915050565b600081519050919050565b600082825260208201905092915050565b6000819050602082019050919050565b61074581610494565b82525050565b600082825260208201905092915050565b6000610767826104b5565b610771818561074b565b93506107818185602086016104d1565b61078a816104fb565b840191505092915050565b61079e81610411565b82525050565b60006060830160008301516107bc600086018261073c565b50602083015184820360208601526107d4828261075c565b91505060408301516107e96040860182610795565b508091505092915050565b600061080083836107a4565b905092915050565b6000602082019050919050565b600061082082610710565b61082a818561071b565b93508360208202850161083c8561072c565b8060005b85811015610878578484038952815161085985826107f4565b945061086483610808565b925060208a01995050600181019050610840565b50829750879550505050505092915050565b600060208201905081810360008301526108a48184610815565b905092915050565b7f4e487b7100000000000000000000000000000000000000000000000000000000600052602260045260246000fd5b600060028204905060018216806108f357607f821691505b602082108103610906576109056108ac565b5b50919050565b60008190508160005260206000209050919050565b60006020601f8301049050919050565b600082821b905092915050565b60006008830261096e7fffffffffffffffffffffffffffffffffffffffffffffffffffffffffffffffff82610931565b6109788683610931565b95508019841693508086168417925050509392505050565b6000819050919050565b60006109b56109b06109ab84610411565b610990565b610411565b9050919050565b6000819050919050565b6109cf8361099a565b6109e36109db826109bc565b84845461093e565b825550505050565b600090565b6109f86109eb565b610a038184846109c6565b505050565b5b81811015610a2757610a1c6000826109f0565b600181019050610a09565b5050565b601f821115610a6c57610a3d8161090c565b610a4684610921565b81016020851015610a55578190505b610a69610a6185610921565b830182610a08565b50505b505050565b600082821c905092915050565b6000610a8f60001984600802610a71565b1980831691505092915050565b6000610aa88383610a7e565b9150826002028217905092915050565b610ac1826104b5565b67ffffffffffffffff811115610ada57610ad961059c565b5b610ae482546108db565b610aef828285610a2b565b600060209050601f831160018114610b225760008415610b10578287015190505b610b1a8582610a9c565b865550610b82565b601f198416610b308661090c565b60005b82811015610b5857848901518255600182019150602085019450602081019050610b33565b86831015610b755784890151610b71601f891682610a7e565b8355505b6001600288020188555050505b505050505050565b60006040820190508181036000830152610ba4818561050c565b9050610bb36020830184610545565b939250505056fea2646970667358221220d8edaeb21f9fdf625c9ddeb2d750c8b56da7ec5a055c6fb6f97b399a12c618b564736f6c634300081c0033",
  "linkReferences": {},
  "deployedLinkReferences": {}
}